{"abi":[{"inputs":[],"name":"get","outputs":[{"internalType":"uint256","name":"","type":"uint256"}],"stateMutability":"view","type":"function"},{"inputs":[{"internalType":"uint256","name":"x","type":"uint256"}],"name":"set","outputs":[{"internalType":"uint256","name":"","type":"uint256"}],"stateMutability":"nonpayable","type":"function"},{"inputs":[],"name":"storedData","outputs":[{"internalType":"uint256","name":"","type":"uint256"}],"stateMutability":"view","type":"function"}],"bytecode":"608060405234801561001057600080fd5b5060c38061001f6000396000f3fe6080604052348015600f57600080fd5b5060043610603c5760003560e01c80632a1afcd914604157806360fe47b11460595780636d4ce63c146073575b600080fd5b60476079565b60408051918252519081900360200190f35b604760048036036020811015606d57600080fd5b5035607f565b60476087565b60005481565b600081905590565b6000549056fea264697066735822122046d96ed4ab55df54fc0d5e0c77554bcf3341ef4a69c0ed478fd1c335a2062d7764736f6c63430006000033","bytecodeSha1":"6075f924371c0e29fc47bd91f07a2da039cac835","compiler":{"evm_version":"istanbul","optimizer":{"enabled":true,"runs":200},"version":"0.6.0+commit.26b70077"},"contractName":"SimpleStorage","language":"Solidity","natspec":{"methods":{}},"opcodes":"PUSH1 0x80 PUSH1 0x40 MSTORE CALLVALUE DUP1 ISZERO PUSH1 0xF JUMPI PUSH1 0x0 DUP1 REVERT JUMPDEST POP PUSH1 0x4 CALLDATASIZE LT PUSH1 0x3C JUMPI PUSH1 0x0 CALLDATALOAD PUSH1 0xE0 SHR DUP1 PUSH4 0x2A1AFCD9 EQ PUSH1 0x41 JUMPI DUP1 PUSH4 0x60FE47B1 EQ PUSH1 0x59 JUMPI DUP1 PUSH4 0x6D4CE63C EQ PUSH1 0x73 JUMPI JUMPDEST PUSH1 0x0 DUP1 REVERT JUMPDEST PUSH1 0x47 PUSH1 0x79 JUMP JUMPDEST PUSH1 0x40 DUP1 MLOAD SWAP2 DUP3 MSTORE MLOAD SWAP1 DUP2 SWAP1 SUB PUSH1 0x20 ADD SWAP1 RETURN JUMPDEST PUSH1 0x47 PUSH1 0x4 DUP1 CALLDATASIZE SUB PUSH1 0x20 DUP2 LT ISZERO PUSH1 0x6D JUMPI PUSH1 0x0 DUP1 REVERT JUMPDEST POP CALLDATALOAD PUSH1 0x7F JUMP JUMPDEST PUSH1 0x47 PUSH1 0x87 JUMP JUMPDEST PUSH1 0x0 SLOAD DUP2 JUMP JUMPDEST PUSH1 0x0 DUP2 SWAP1 SSTORE SWAP1 JUMP JUMPDEST PUSH1 0x0 SLOAD SWAP1 JUMP INVALID LOG2 PUSH5 0x6970667358 0x22 SLT KECCAK256 CHAINID 0xD9 PUSH15 0xD4AB55DF54FC0D5E0C77554BCF3341 0xEF 0x4A PUSH10 0xC0ED478FD1C335A2062D PUSH24 0x64736F6C6343000600003300000000000000000000000000 ","sha1":"e93869e48ed9e6a5fd1332a3eb25023feca0a48c","source":"pragma solidity ^0.6.0;\n\n// Simple storage contract.\ncontract SimpleStorage {\n    uint256 public storedData;\n\n    function set(uint256 x) public returns (uint256) {\n        storedData = x;\n        return storedData;\n    }\n\n    function get() public view returns (uint256) {\n        return storedData;\n    }\n}\n","sourcePath":"contracts/SimpleStorage.sol","type":"contract","deployment":{"address":"0x87eA21154A376b954f4Cd0CAE1f60DCA2A5D5f5e","chainid":"4","blockHeight":9273388}}